:020000040800F2
:1000000040060020010100083F200008571D00089D
:100010003D20000809080008652D000800000000C8
:10002000000000000000000000000000DD230008C8
:100030000B08000800000000DB230008A1240008D2
:100040001B0100081B0100081B0100081B01000820
:100050001B0100081B0100081B0100081B01000810
:100060001B0100081B0100081B0100081B01000800
:100070001B0100081B0100081B0100081B010008F0
:100080001B0100081B0100081B0100081B010008E0
:100090001B0100081B0100081B0100081B010008D0
:1000A0001B0100081B0100081B0100081B010008C0
:1000B0001B0100081B0100081B0100081B010008B0
:1000C0001B0100081B0100081B0100081B010008A0
:1000D0001B0100081B0100081B0100081B01000890
:1000E0001B0100081B0100081B010008DFF80CD0F1
:1000F00000F00EFB00480047F936000840060020DB
:100100000648804706480047FEE7FEE7FEE7FEE7B1
:10011000FEE7FEE7FEE7FEE7FEE7FEE71D25000837
:10012000ED000008202A04DB203A21FA02F0002129
:10013000704721FA02F3D040C2F1200291400843F7
:1001400019467047D2B201E000F8012B491EFBD2DC
:1001500070470022F6E710B513460A4604461946D2
:10016000FFF7F0FF204610BD421C10F8011B0029CC
:10017000FBD1801A70472DE9FE4F804681EA0300CB
:10018000C00F0C46009021F0004123F00045B8EB71
:100190000200A94105D24046214690461C460B4626
:1001A000024623F00040104347D0270DC7F30A0052
:1001B000C3F30A510290401A019040286BDAC3F34E
:1001C000130040F4801B0098924620B10023D2EB2C
:1001D000030A63EB0B0B01985946C0F140025046ED
:1001E00000F0FFF906460D4650465946019A00F0C8
:1001F00007FA10EB08006141002487EA115284EAF3
:10020000E7731A4340D0009A62B3019A012A4FEA79
:10021000075215DC001B61EB02014FF0004202EABD
:100220000752CDE90042001C41F5801132462B46B1
:1002300000F007FA03B0BDE8F08F40462146F9E729
:10024000001B61EB0201001C41F5801300185B41AB
:100250002018A2F5001747EB030140EAD570B61944
:100260006D4111E06D084FEA360645EAC0754FEA68
:100270000752001B61EB0201001C41F58011490887
:100280004FEA30000019514132462B4603B0BDE819
:10029000F04F00F0C7B90098012240000023D0EBD6
:1002A000020263EBE073009821464FEAE074B8EB7A
:1002B000000061EB0401E9E783F000435BE781F0B4
:1002C000004158E72DE9FE4F81EA030404F00044A1
:1002D00021F0004100944FF0000B23F0004350EA5E
:1002E00001045ED052EA03045BD0C3F30A54C1F3A5
:1002F0000A552C44A4F2F3340194A0FB0254C1F338
:10030000130141F48011C3F3130343F4801301FB81
:10031000024400FB034E840A970A44EA815447EAE8
:100320008357A4FB076802958D0A05FB07854FEAF2
:10033000932C04FB0C542705029D4FEA065847EA0C
:100340001637B5EB08056EEB070C870E920E47EAE1
:10035000811742EA8312A7FB0201B6EB0B0164EBA3
:1003600000042B0D43EA0C335E1844EB1C50DA46B4
:100370005146E7FB0201C5F313044FEA0B3343EA8E
:1003800014534FEA0432019C43EA0603A4F10C041F
:100390000294009CCDE900B400F053F903B0BDE82D
:1003A000F08F00200146F9E72DE9F04D81EA0304C2
:1003B00004F0004B21F0004514464FF0000A23F0F2
:1003C000004150EA050220D054EA01021DD0C5F3D5
:1003D0000A570246C5F31303C1F31300C1F30A56CB
:1003E00040F4801543F48013A7EB0608101BD64693
:1003F00008F2FD3873EB050002D308F1010801E0B3
:1004000092185B41B8F1000F03DA00200146BDE805
:10041000F08D00204FF48011064684460EE0171B35
:1004200073EB050705D3121B63EB050306434CEA88
:10043000010C49084FEA300092185B4150EA01076D
:10044000EDD152EA030012D082EA040083EA0501EA
:10045000084305D0101BAB4106D20122002306E061
:1004600000224FF0004302E06FF0010253101AEB3C
:1004700006004CEB085110EB0A0041EB0B01BDE804
:10048000F04D00F0CFB80EB5C10F80EAE07008441F
:10049000CA07002140F233438DE80E000A460B469E
:1004A00000F0CFF803B000BD0EB540F23341029129
:1004B0000021CDE900110A460B4600F0C2F803B056
:1004C00000BDC1F30A5210B5C1F3130140F2FF336E
:1004D00041F480119A4201DA002010BD40F233430A
:1004E0009A42A2F2334203DC5242FFF71BFE10BDD8
:1004F000904010BD30B5041E71F1000404DB4FF0D4
:100500000044404264EB0101141E73F1000405DB5A
:100510001C464FF00043524263EB04038B4208BF7A
:10052000824230BD30B5041E71F1000404DB4FF08F
:100530000044404264EB0101141E73F1000405DB2A
:100540001C464FF00043524263EB0403994208BF3C
:10055000904230BD30B50B460146002020220124D8
:1005600009E021FA02F59D4205D303FA02F5491B81
:1005700004FA02F52844151EA2F10102F1DC30BD97
:100580002DE9F05F0546002092469B4688460646C8
:10059000814640241BE02846414647462246FFF755
:1005A000C1FD53465A46C01A914110D31146184610
:1005B000224600F016F82D1A67EB01084F46224636
:1005C0000120002100F00DF817EB00094E41201E1C
:1005D000A4F10104DFDC484631462A464346BDE823
:1005E000F09F202A04DB203A00FA02F10020704735
:1005F0009140C2F1200320FA03F319439040704761
:10060000202A06DBCB17203A41FA02F043EAE073D6
:1006100006E041FA02F3D040C2F1200291400843C3
:100620001946704710B5141E73F1000408DA401C17
:1006300041F1000192185B411A4301D120F0010001
:1006400010BD2DE9F04D92469B4611B1B1FA81F2F1
:1006500002E0B0FA80F220329046FFF7C2FF044673
:100660000F4640EA0A0041EA0B0153465A46084346
:1006700013D0114653EA010019D0C8F14002504688
:10068000FFF750FD05460E46504659464246FFF7D5
:10069000A8FF084305D0012004E020463946BDE804
:1006A000F08D0020054346EAE0762C4337430A9854
:1006B0006305E40AA0EB08000022FD0A44EA47545F
:1006C0000A3002D500200146E9E701051019694109
:1006D000DDE9084500196941BDE8F04DA2E7C1F325
:1006E0000A52C1F3130140F2FF3341F480119A42E0
:1006F00002DA00200146704740F233439A42A2F2E8
:10070000334202DC5242FFF70DBDFFF76ABF000023
:10071000064C074D06E0E06840F0010394E807004E
:1007200098471034AC42F6D3FFF7E4FCB03D000824
:10073000D03D000870B5044600688168C943C90708
:1007400017D1816821F00101816000F0FBFC0546B2
:100750000AE000BF00F0F6FC401B022804D9206824
:100760008068C043C00706D020688068C043C007C7
:10077000F0D0002070BDA06A40F01000A062E06AD6
:1007800040F00100E062012070BD0000F8B50026D5
:100790000446009600688168C943C9072DD0816866
:1007A00041F001018160164816490068B0FBF1F084
:1007B00000E0401E00900028FBD100F0C3FC05467D
:1007C00016E000BF00F0BEFC401B022810D92068D4
:1007D0008068C043C0070BD0A06A40F01000A06240
:1007E000E06A40F00100E06284F824600120F8BD76
:1007F00020688068C043C007E4D10020F8BD000035
:100800006400002040420F00FEE770472DE9F047EA
:100810002C4E9846914604460D462B4F00223346F7
:10082000FFF768FE03D222462B4628A124E00022CF
:100830003B4620462946FFF75DFE4FF000020AD2F4
:10084000334620462946FFF7AFFD0D460B460446CA
:10085000024621A110E0234B20462946FFF74AFE1D
:100860000ED200223B4620462946FFF79DFD0D464D
:100870000B46044602461CA11E4802F075FA03E02E
:100880001DA11C4802F070FA20A20021022001F0F4
:1008900013FD184A0021022001F00EFD1BA20021C9
:1008A000042001F009FD43464A461DA1114802F00B
:1008B0005BFA104A0021042001F0FEFC2046294684
:1008C000BDE8F08700408F4080842E41523A2531A8
:1008D000302E336C66520000523A2531302E336C84
:1008E000664B000065CDCD41523A2531302E336C38
:1008F000664D0000B8000020523A20202020202021
:100900002020202020202020000000002020202067
:100910002020202020202020202020200000000057
:100920004144433A2534642053686966743A256427
:10093000000000002DE9F0410026904604460D46D7
:10094000374632463346FFF7D5FD03D11D481E49D1
:10095000BDE8F0811D4BB8F1010F09D0B8F1020FCD
:100960000ED0B8F1030F13D0B8F1040F18D026E061
:10097000002220462946FFF7A2FC0022144B16E075
:10098000002220462946FFF79AFC0022114B0EE078
:10099000002220462946FFF792FC00220E4B06E07B
:1009A000002220462946FFF78AFC00220B4BFFF766
:1009B00089FC22462B46FFF7F7FC06460F463046D9
:1009C0003946C5E70000FFE7764837420000B040EF
:1009D00000C0584000C88E400088C340DC04654118
:1009E000F8B500250446009590F8240001280BD0A6
:1009F000012084F824002046FFF79CFE2046FFF7E4
:100A0000C5FE060002D050E00220F8BDA06A20F426
:100A1000885040F00200A062022000F023FC25492B
:100A20000968B1FBF0F0400000E0401E0090002893
:100A3000FBD12068816841F00801816000F082FBF1
:100A4000074608E000F07EFBC01B0A2803D9206897
:100A50008068000715D4206880680007F2D42068F9
:100A6000816841F00401816000F06CFB074612E0F0
:100A700000F068FBC01B0A280DD920688068400779
:100A800009D5A06A20F0020040F01000A06284F8AE
:100A900024500120F8BD206880684007E8D4A06A8F
:100AA00020F0020040F00100A06284F8245030469B
:100AB000F8BD000064000020F8B50024009490F810
:100AC00024202546012A12D0012280F824204A68D9
:100AD0001F23072A0DD20668776B521E02EB820293
:100AE00093409F430B6893401F43776319E00220B4
:100AF000F8BD06680D2A0AD2376BD21F02EB8202BC
:100B000093409F430B6893401F43376309E0F76AA4
:100B10000D3A02EB820293409F430B6893401F43C0
:100B2000F7620A68072306680A2A0AD3F7680A3AAE
:100B300002EB420293409F438B6893401F43F76050
:100B400008E0376902EB420293409F438B68934071
:100B50001F4337610A68102A01D0112A20D1124B95
:100B600002689A4217D193681B0219D4936843F420
:100B7000000393600968102912D10C490C4A0968D6
:100B8000B1FBF2F101EB8101490000E0491E009147
:100B90000029FBD104E0816A41F020018162012437
:100BA00080F824502046F8BD002401406400002055
:100BB00040420F000068C06C704700002DE9F04112
:100BC0004FF0000704003D467ED0A06A002628B9F9
:100BD000E66284F82460204600F07EF82046FFF7A5
:100BE000A9FDA16AC90600D420B1A06A40F0100096
:100BF000A06269E0A16A21F4885141F00201A1627A
:100C00006268E169237B0A4347EA43010A43A1681A
:100C10004FF48077B94209D0012907D05FF0000175
:100C200094F814C0BCF1010F02D00AE03946F7E78E
:100C3000F3B1A36A43F02003A362E36A43F0010324
:100C4000E3622368D3F804C02CF4694C4CEA010C2D
:100C5000C3F804C021688B68DFF870C003EA0C0396
:100C600013438B60A168B9420BD0012909D00CE075
:100C7000DFF85CC0A3690CEB43330B4343F4006122
:100C8000DFE7218A0D05A5F580152168CB6A23F4DD
:100C900070032B43CB62216889680E4B1940914247
:100CA00008D1E662A16A21F0020141F00101A162CE
:100CB000BDE8F081A06A20F0020040F01000A062C0
:100CC000E06A40F00100E0620120F1E7FDF7E1FF9A
:100CD00000E0FFFFFE0E1FFF00B585B00021009170
:100CE00001910291039100680E49884218D10E4883
:100CF000816941F400718161816901F4007104919D
:100D0000816941F0040181618069694600F0040055
:100D100004900120009003200190044800F018F98D
:100D200005B000BD00240140001002400008014051
:100D30002DE9F84300270D460446009700F002FA1B
:100D4000804620688168C90508D5A06A40F0200067
:100D5000A06284F824700120BDE8F8834168C905C9
:100D600003D4C06A10F4700F2AD0022000F07AFA7F
:100D70003B490968B1FBF0F62068036939490B4229
:100D80004FEA61014FEAA1121FD1C3684FEA611C0B
:100D900013EA0C0F19D103690B4225D1C068104228
:100DA00022D1142023E0681C0AD02DB100F0CAF92A
:100DB000A0EB0800A84203D920680068800725D569
:100DC000206800688007EED52DE003690B4202D150
:100DD000C168114206D0026923490A4206D1C0689F
:100DE000084203D1542002E0292000E0FC204643C1
:100DF000009816E0681C11D02DB100F0A3F9A0EB0B
:100E00000800A8420AD90098B04207D2A06A40F070
:100E10000400A06284F8247003209DE70098401C21
:100E20000090B042E6D321686FF012000860A06A1B
:100E300040F40070A06220688068C0F34240072838
:100E40000CD1207B50B9A06A20F48070A062A06A07
:100E5000C00403D4A06A40F00100A06200207BE738
:100E600064000020244992244992240070B504466D
:100E700090F8240001280DD0012084F82400204699
:100E8000FFF784FC02004FF0000005D084F8240036
:100E9000104670BD022070BDA16A40F20123994343
:100EA00041F48071A1621F4D23681F49AB4218D1E4
:100EB0000E6816F4702F14D0A66A46F48016A66247
:100EC0000E68760505D5A66A26F4005646F48056C7
:100ED000A662A66AF6040AD5E66A26F00606E66267
:100EE00006E0A66A26F48016A6625E68E9E7E0627C
:100EF00084F824006FF00200186020688368C3F350
:100F00004243072B05D1A84208D1096811F4702F7C
:100F100004D0816841F480118160B9E7816841F4AF
:100F2000A001F9E7002801400424014070B50446FF
:100F300000F008F90546601C02D00448007804441B
:100F400000F000F9401BA042FAD370BD5800002009
:100F50002DE9F84FDFF8B8910024A9F1040B2346DE
:100F60000F2709F1040AABF1040EC9E00125A540E1
:100F70002A40AA427DD1674ED1F804C0ACEB0608E6
:100F8000B44532D014DCBCF1030F3AD009DCBCF11B
:100F9000000F2AD0BCF1010F1CD0BCF1020F31D1DF
:100FA0001DE0BCF1110F17D0BCF1120F2AD119E0CE
:100FB000B8F5881F19D006DCB8F5803F15D0B8F514
:100FC000801F1FD111E0B8F5001F0ED0B8F5041F27
:100FD00018D10AE0CB6815E0CB681B1D12E0CB6886
:100FE00008330FE0CB680C330CE08B682BB1012B7E
:100FF0004FF0080303D0456104E0042302E00561DB
:1010000000E00023FF2A01D8064601E000F10406B3
:101010004FEA840501D9A5F12005D6F8008007FA2A
:1010200005FC28EA0C0803FA05F548EA0508C6F8A5
:1010300000804D68ED0062D5374DAE6946F001067F
:10104000AE61AD6924F0030605F001050095334D4E
:1010500006EB050CDCF80850A607360F07FA06F871
:1010600025EA0805DFF8B880404503D14FF00008B5
:1010700017E044E0DFF8AC80404502D14FF00108B2
:101080000FE0DFF8A480404502D14FF0020808E0ED
:10109000DFF89880404502D14FF0030801E04FF09F
:1010A000040808FA06F848EA0508CCF808804D68F4
:1010B000D9F80060ED024D4601D5164300E0964395
:1010C0002E604D68DAF80060AD02554601D5164332
:1010D00000E096432E604D68DBF80060AD035D468E
:1010E00001D5164300E096432E604D68DEF800609F
:1010F000ED03754601D5164300E096432E60641C4F
:101100000D682A46E5407FF431AFBDE8F88F000056
:1011100008040140000011100010024000000140CE
:1011200000080140000C0140001001400014014083
:101130008068084000D0012070470AB10161704703
:101140000904FBE701488068704700005800002050
:10115000024881680278114481607047580000207D
:10116000074810B5016841F010010160032000F04C
:1011700067F80F2000F006F800F024F8002010BDFA
:101180000020024070B50D4D04464FF47A71287866
:10119000B1FBF0F00A490968B1FBF0F000F096FBF2
:1011A00048B9102C07D200222146501E00F028F822
:1011B00000206C6070BD012070BD00005800002050
:1011C000640000200C4808B5816941F0010181618B
:1011D000816901F001010091C16941F08051C16153
:1011E000C06900F0805000900448416821F0E0613F
:1011F00041F00071416008BD001002400000014054
:10120000F0B40E4B1B680C46C3F30223C3F1070571
:10121000042D00D90425191D072901D2002300E05F
:10122000DB1E012606FA05F1491E214099409E4029
:10123000761E16403143F0BC01F0AABD0CED00E073
:10124000064900F0070208684FF6FF03184040EA1D
:101250000220034A10430860704700000CED00E0D4
:101260000000FA0510B501460020234C012922D0C8
:10127000022939D010291DD161682268D20119D5FF
:101280001E48C1F38342C903805C0AD561681B4ACA
:10129000C1F34041921E515C194AB2FBF1F148433F
:1012A00001E0184948436168490203D44000032122
:1012B000B0FBF1F010BD226AC2F30121012903D174
:1012C000920701D5C80310BD022905D1626A9207B1
:1012D00002D549F6404010BD0329FCD1216889039D
:1012E000F9D54FF2244010BD00F02AF96168C1F32E
:1012F0008131491C4900DBE70010024098370008A3
:1013000000127A0000093D002DE9F84305460078F7
:10131000354CC00754D0E0690026C00008D4E0690D
:1013200040F08050E061E069012600F080500090BC
:101330002E480168C90512D40168804641F48071C5
:101340000160FFF7FFFE074605E000BFFFF7FAFE6A
:10135000C01B642823D8D8F80000C005F6D5206A41
:1013600010F4407021D0A98801F4407181421CD052
:10137000206A1F49012220F440700A6000220A609E
:101380002062C00711D0FFF7DDFE074641F2883822
:1013900008E000BFFFF7D6FEC11B414502D903207C
:1013A000BDE8F883206A8007F4D5206A696820F4D4
:1013B0004070084320621EB1E06920F08050E06177
:1013C0002878800705D56068A96820F44040084364
:1013D00060602878C00605D56068E96820F4800060
:1013E000084360600020DBE700100240007000400E
:1013F000400442422DE9F0470F46050061D0434EBC
:10140000306800F00700B84209D2306820F00700C9
:1014100038433060306800F00700B84251D1286886
:101420003B4C810712D5400703D5606840F4E0606B
:1014300060602878000703D5606840F46050606001
:101440006068A96820F0F000084360602878C00751
:1014500028D06868012810D02168022810D0890798
:1014600000292EDA616821F0030101436160FFF772
:1014700069FE804641F288390DE021688903EFE773
:101480008901EDE7FFF75EFEA0EB0801494502D9AF
:101490000320BDE8F0876068696800F00C00B0EBDD
:1014A000810FEFD1306800F00700B8420BD93068E7
:1014B00020F0070038433060306800F00700B84281
:1014C00001D00120E5E72878400705D56068E96884
:1014D00020F4E060084360602878000706D5606863
:1014E000296920F4605040EAC100606000F038F8DB
:1014F0006168084AC1F30311515CC840064908609D
:1015000006480068FFF73EFE0020C2E700200240C8
:1015100000100240A8370008640000205C00002092
:101520000448054900684968044AC1F30221515C36
:10153000C84070476400002000100240B83700081F
:101540000448054900684968044AC1F3C221515C56
:10155000C84070476400002000100240B8370008FF
:101560000E4A51680E4801F00C03042B11D0082BD1
:101570000FD10C48C1F38343C903C05C0AD551683D
:10158000084AC1F34041921E515C054A5043B0FBEA
:10159000F1F07047044948437047000000100240D2
:1015A00000127A008637000800093D002DE9F84F47
:1015B000040070D02078C04DC00749D06868C0F3DF
:1015C0008100012807D06868C0F38100022809D192
:1015D0006868C00306D52868800339D5606800288C
:1015E000E7D035E06068B0F5803F0BD010B1B0F5C2
:1015F000A02F11D0286820F480302860286820F4BB
:10160000802002E0286840F480302860606890B153
:10161000FFF798FD06460AE0286840F4802028601D
:10162000F0E700BFFFF78EFD801B642873D82868A1
:101630008003F7D50CE0FFF785FD064605E000BF07
:10164000FFF780FD801B6428F0D828688003F7D45A
:1016500020789A4E80074FF001094FF0000839D5E5
:10166000686810F00C0F07D06868C0F3810002288A
:1016700009D16868C00306D42868800714D520699A
:10168000012808D110E02069B0B1C6F80090FFF73A
:1016900059FD074605E00AE1FFF754FDC01B02288B
:1016A000C4D828688007F7D52868616920F0F80059
:1016B00040EAC10028600DE0C6F80080FFF742FD57
:1016C000074604E0FFF73EFDC01B022823D8286828
:1016D0008007F7D4207800072CD57948A169D9B1C3
:1016E000C0F80090FFF72EFD074604E0FFF72AFD43
:1016F000C01B02280FD8686A8007F7D571484FF4DD
:10170000FA510068B0FBF1F0009000BF0098411E54
:101710000091FAD20EE080E0C0F80080FFF712FDE1
:10172000074604E0FFF70EFDC01B022875D8686A63
:101730008007F7D42078400760D5E8690027C0000B
:1017400008D4E86940F08050E861E869012700F0BA
:10175000805000905C480168C90513D40168834635
:1017600041F480710160FFF7EDFC824606E000BFA6
:10177000FFF7E8FCA0EB0A0064284ED8DBF8000075
:10178000C005F5D5E06801280AD008B1052813D0B6
:10179000286A20F001002862286A20F0040002E094
:1017A000286A40F001002862E06841F2883B98B165
:1017B000FFF7C8FC82460BE0286A40F0040028626C
:1017C000EEE700BFFFF7BEFCA0EB0A0159455AD86F
:1017D000286A8007F6D50CE0FFF7B4FC824605E0E6
:1017E000FFF7B0FCA0EB0A0159454CD8286A8007E6
:1017F000F6D41FB1E86920F08050E861E06988B351
:101800006968C1F38101022944D00228C6F86080CA
:1018100004D0FFF797FC044638E034E0FFF792FC71
:10182000074604E0FFF78EFCC01B02282BD828686F
:101830008001F7D4206AB0F5803F05D16868A168BF
:1018400020F4003008436860D4E90801084369685F
:1018500021F4741108436860C6F86090FFF772FCC9
:10186000044606E025E000BFFFF76CFC001B0228E1
:1018700009D828688001F7D51BE000BFFFF762FC9C
:10188000001B022802D90320BDE8F88F28688001D8
:10189000F4D40EE00128F7D06868226A00F48031A1
:1018A000914204D1616A00F47010884201D0012095
:1018B000EAE70020E8E70000001002400000424292
:1018C00080044242640000200070004010B5401EB9
:1018D000B0F1807F01D3012010BD4FF0E0246061A2
:1018E0000F21601701F054FA0020A0610720206149
:1018F000002010BD10B590F83C20012A22D0012212
:1019000080F83C20CA688C6822F4407222434C68FC
:1019100022F4806222430C6822F4006222430C69A4
:1019200022F4805222434C6922F400522243C969B6
:10193000002322F480420A4301684A6480F83C3064
:10194000002010BD022010BD70B590F83C20012A87
:1019500026D0012480F83C40022280F83D20036814
:101960005A689D6822F070060A6832435A600D4B2F
:1019700002689A4208D0B2F1804F05D00A4B9A42D1
:1019800002D00A4B9A4204D1496825F080031943DA
:10199000916080F83D40002180F83C10084670BD01
:1019A000022070BD002C01400004004000080040EF
:1019B00000B585B00021009101910291039100686A
:1019C0000B49884212D10B48816941F004018161C1
:1019D0008069694600F0040004904FF48070009024
:1019E0000220019003900448FFF7B2FA05B000BD51
:1019F000002C0140001002400008014070B5044670
:101A000090F83C0000260D4601280FD0012084F8F4
:101A10003C006AB1042A1DD0082A2FD00C2A3FD0DE
:101A20000126002084F83C00304670BD022070BDC5
:101A3000206800F0B9FD2068816941F008018161EA
:101A40002068816921F004018161206881692A6927
:101A5000114311E0206800F0CFFD2068816941F456
:101A6000006181612068816921F480618161206861
:101A700081692A6941EA02218161D2E7206800F088
:101A8000E7FD2068C16941F00801C1612068C169B2
:101A900021F00401C1612068C1692A69114311E084
:101AA000206800F001FE2068C16941F40061C16155
:101AB0002068C16921F48061C1612068C1692A6917
:101AC00041EA0221C161ACE710B5040003D094F8EB
:101AD0003D0010B107E0012010BD002084F83C005B
:101AE000204600F01FF8022084F83D00211D2068E8
:101AF00000F016FD012084F8460084F83E0084F8CA
:101B00003F0084F8400084F8410084F8420084F8E3
:101B1000430084F8440084F8450084F83D00002028
:101B200010BD000008B500680649884208D1064883
:101B3000816941F400618161806900F40060009076
:101B400008BD0000002C01400010024010B5044602
:101B5000022249B104290ED0082913D094F841007B
:101B6000012816D0012010BD94F83E000128F9D1BB
:101B700084F83E200FE094F83F000128F2D184F869
:101B80003F2008E094F840000128EBD184F8402081
:101B900001E084F841200122206800F0F7FC0F49A1
:101BA0002068884203D1426C42F4004242642068BB
:101BB000884208D0B0F1804F05D00949884202D050
:101BC0000849884204D1816801F00701062903D041
:101BD000016841F001010160002010BD002C0140AE
:101BE000000400400008004070B5040004D094F8E0
:101BF0004100002510B106E0012070BD84F840507E
:101C0000204600F023F8242084F841002068C168B1
:101C100021F40051C160204601F00CF820680169F0
:101C200021F4904101612068416921F02A0141615C
:101C30002068C16841F40051C1606564202084F8C7
:101C4000410084F842006563002070BD30B585B066
:101C5000002400940194029403940068144988427B
:101C600024D11448816941F480418161816901F482
:101C700080410491816941F00401816180690E4DC8
:101C800000F0040004904FF40070009002200190D6
:101C90000320039069462846FFF75AF92815CDE935
:101CA0000004694628460294FFF752F905B030BD9A
:101CB0000038014000100240000801402DE9F843BF
:101CC000044690F841001F4616460D46202802D0D3
:101CD0000220BDE8F8837DB176B100206064212048
:101CE00084F84100FFF72EFAA6848046E684A068B7
:101CF000B0F5805F02D003E00120EAE7206910B16F
:101D00002E4600250EE000260CE08021204600F043
:101D1000EDFFA0B9AEB116F8010B21684860E08C68
:101D2000401EE084E08C43464FF0000200970028FC
:101D3000EBD14FF04001204600F0D8FF30B1032036
:101D4000C7E735F8020BC0F30800E6E7202084F867
:101D500041000020BDE7FEE7704700000748012171
:101D6000C0F89C110022C0F89821C0F89811D0F852
:101D70001C01002800D00120704700000080214293
:101D800030B400220C4913465FF00104C1F89831C9
:101D9000050602D5C1F89C4101E0C1F89C3140061E
:101DA000000EC1F89841521CD2B2082AEED3C1F8F5
:101DB000983130BCFFF7D2BF0080214230B40022FE
:101DC0000C4913465FF00104C1F89831050602D5AD
:101DD000C1F89C3101E0C1F89C414006000EC1F8F9
:101DE0009841521CD2B2082AEED3C1F8983130BCC7
:101DF000FFF7B4BF0080214205480121C0F89811C7
:101E0000C0F89C110021C0F89C11C0F898117047CF
:101E10000080214205480021C0F898110122C0F835
:101E20009C21C0F89821C0F89C1170470080214285
:101E300010B51B4C10212046FFF77AF970B1202114
:101E40002046FFF775F948B140212046FFF770F9A9
:101E500020B180212046FFF76BF9B0B90A20FFF7C7
:101E600065F810212046FFF763F980B12021204654
:101E7000FFF75EF968B140212046FFF759F950B1EC
:101E800080212046FFF754F938B1002010BD012011
:101E900010BD022010BD032010BD042010BD0000A5
:101EA000000801403EB500241148009401940294BA
:101EB0000E498460016004730475012505614FF4C7
:101EC00060214460C161FEF779FE08B172B6FEE799
:101ED00007200094CDE9015069460548FEF7ECFD66
:101EE000002801D072B6FEE73EBD0000002401408C
:101EF00008010020F0B585B0002423480094019427
:101F000002940394816941F020018161816901F0AB
:101F100020010491816941F004018161816901F02E
:101F200004010491816941F0080181618069174FC2
:101F300000F008004FF47046049000223146384605
:101F4000FFF7FBF80122C0213846FFF7F6F8F02032
:101F500001258DE8310069460D48FEF7F9FF0220A2
:101F6000CDE90240CDE9006569463846FEF7F0FF4D
:101F7000C020CDE900050320CDE90240694638467E
:101F8000FEF7E6FF05B0F0BD00100240000C014076
:101F90000008014010B592B000240F941C2108A83D
:101FA0001094FEF7D6F820216846FEF7D2F82248B2
:101FB000204901604721C0E9011444F61F61C0E9CE
:101FC00003148021C0E90541FFF77EFD08B172B618
:101FD000FEE70F940FA918481094FFF7B5FC08B15D
:101FE00072B6FEE76020089040F6C310CDE9090400
:101FF0000B940C940D94002208A90F480E94FFF73F
:10200000FDFC08B172B6FEE700944FF40050CDE934
:102010000440029401940394694607480794FFF72B
:1020200069FC08B172B6FEE70348FFF7C1FC12B0C5
:1020300010BD0000002C014038010020FEE7FEE743
:1020400070B506465FF0000404F1B000C0B200F0C5
:1020500013F8002000F010F8102000F00DF8002513
:10206000304600F098F96D1CEDB2802DF8D3641C59
:10207000E4B2082CE8D370BD10B50446FFF7BCFEEF
:102080007820FFF77DFE0020FFF77AFE2046FFF75D
:1020900077FEBDE81040FFF7BDBE000060B101282B
:1020A0000CD002280CD003280CD004280CD107A295
:1020B0000021084600F000B909A2F9E70DA2F7E7F0
:1020C00011A2F5E715A2F3E77047000020204D4F5D
:1020D0004445204155544F2020202020000000007E
:1020E00020204D4F44452053455420474F414C201C
:1020F00000000000204D4F444520534554204552D8
:10210000524F52200000000020204D4F44452052E5
:10211000554E4E494E4720200000000020204D4FD4
:102120004445204D414E55414C20202000000000E8
:1021300001280AD002280AD003280AD004280AD18C
:1021400005A20021062000F0B7B808A2F9E70CA20A
:10215000F7E710A2F5E770475343414C452D2D2D6D
:102160002D2D2D2D2D31304D000000005343414CBD
:10217000452D2D2D2D2D2D2D2D3130300000000021
:102180005343414C452D2D2D2D2D2D2D2D2D314BD6
:10219000000000005343414C452D2D2D2D2D2D2D9C
:1021A0002D31304B0000000010B5B0300C46C0B2ED
:1021B000FFF762FF102000EB1410FFF75DFF04F043
:1021C0000F00BDE81040FFF757BF00002DE9F041B8
:1021D000203A88460746D6B20024FFF7E5FF0E4DA9
:1021E00004EB0610285C00F0D6F8641CE4B2082C5E
:1021F000F6D37F1CF8B24146FFF7D6FF5FF000042C
:1022000004EB06102844007A00F0C5F8641CE4B220
:10221000082CF5D3BDE8F081C03700082DE9F04760
:10222000203A1F4689468046D5B20024FFF7BCFFFE
:10223000124E00BF04EB0510305C17B100F0BCF883
:1022400001E000F0A8F8641CE4B2082CF2D308F115
:102250000100C0B24946FFF7A7FF002404EB0510B8
:102260003044007A17B100F0A7F801E000F093F8CD
:10227000641CE4B2082CF1D3BDE8F087C037000835
:102280002DE9F0411D469046064601F0070700245F
:10229000BC42305D00F13000C2B201D1012300E048
:1022A000002329464046FFF7B9FF0835641CEDB20C
:1022B000082CEDDBBDE8F08170B514460D460646EE
:1022C00006E029463046FFF781FF0835EDB2641C71
:1022D0002278002AF5D170BD10B5FFF73DFDAE2084
:1022E000FFF7CAFE0220FFF7C7FE1020FFF7C4FE6B
:1022F0004020FFF7C1FE8120FFF7BEFECF20FFF791
:10230000BBFEA120FFF7B8FEC820FFF7B5FEA62050
:10231000FFF7B2FEA820FFF7AFFE3F20FFF7ACFEAD
:10232000D320FFF7A9FE0020FFF7A6FED520FFF778
:10233000A3FE8020FFF7A0FED920FFF79DFEF1202D
:10234000FFF79AFEDA20FFF797FE1220FFF794FEC0
:10235000DB20FFF791FE4020FFF78EFE2020FFF7E5
:102360008BFE0220FFF788FE8D20FFF785FE1420EC
:10237000FFF782FEA420FFF77FFEA620FFF77CFE7A
:10238000AF20FFF779FEAF20FFF776FEBDE81040E3
:102390000020FFF755BE10B50446FFF72DFD78204D
:1023A000FFF7EEFC4020FFF7EBFC2046FFF7E8FCD0
:1023B000BDE81040FFF72EBD10B50446FFF71CFD29
:1023C0007820FFF7DDFC4020FFF7DAFC2046FFF71E
:1023D000F5FCBDE81040FFF71DBD704770470029B0
:1023E0000BDB082909DA002A425C07D0521C52B2E2
:1023F00042540A2A01DB002242547047521E52B254
:102400004254002AF9DC0922F6E700002DE9F041E8
:102410004FF48051214C4D008E00CF00012808D090
:1024200002280CD003281AD004284FF0010221D032
:1024300000E000222046FEF780FE012204E0012297
:102440002046FEF77AFE002229462046FEF775FE5A
:10245000012231462046FEF770FE012218E00122DB
:102460002046FEF76AFE012229462046FEF765FE59
:102470000022EEE72046FEF760FE012229462046B4
:10248000FEF75BFE012231462046FEF756FE002293
:1024900039462046BDE8F041FEF74FBE000C014032
:1024A000FEF756BE30B593B028216846FDF751FEC1
:1024B00014210AA8FDF74DFE002501200F95109567
:1024C0001195010412958DE8230004904FF4E0105B
:1024D000CDE90810022407946846FFF767F808B1B1
:1024E00072B6FEE70AA90F2081E831004FF4806040
:1024F000CDE90D0502210AA8FEF77CFF08B172B6EE
:10250000FEE74FF4004011900F940FA8FEF7FCFE79
:10251000002801D072B6FEE713B030BD704700004E
:10252000F0B50268164B174C174D4FF08047984294
:1025300005D0B84203D0A04201D0A84203D122F076
:1025400070064A683243984205D0B84203D0A04290
:1025500001D0A84203D122F44074CA6822434C69D6
:1025600022F08002224302608A68C2620A688262A4
:10257000984201D10969016301214161F0BD000068
:10258000002C0140000400400008004010B501F09C
:102590001F030121046A99408C430462016A9A4036
:1025A0001143016210BD000030B5036A026A22F0D7
:1025B000010202624268846924F073050C682C43AE
:1025C00023F002058B682B430A4DA8420BD123F060
:1025D0000805CB6822F440722B434D6923F00403B5
:1025E00015438A692A4342608461496841630362F2
:1025F00030BD0000002C014030B5026A036A23F0B0
:1026000010030362436884690D6824F4E64444EAD5
:1026100005248D6822F0200242EA05120B4DA842E3
:102620000ED1CD6822F0800242EA05124D6923F4F2
:10263000406343EA85038D6922F0400243EA850343
:102640004360846149688163026230BD002C0140AF
:1026500030B5036A026A22F4807202624268C46979
:1026600023F4007324F073050C682C438D6843EA4F
:1026700005230C4DA8420ED1CD6823F4006343EA34
:1026800005234D6922F4405242EA05128D6923F474
:10269000806342EA05124260C4614968C163036213
:1026A00030BD0000002C014030B5046A026A22F4FB
:1026B000805202624268C3690D6823F4E64343EA2C
:1026C00005238D6824F4005444EA0534064DA842DD
:1026D00004D14D6922F4804242EA85124260C3610E
:1026E00049680164046230BD002C01402DE9FC41C1
:1026F000F64C6078FFF7D2FCFFF79AFB012504281F
:1027000009D16078401CC0B20521B0FBF1F201FB99
:10271000120060706571607807270026002852D18A
:10272000607930B16671E570E9A200210620FFF7FB
:10273000C3FDFFF77DFB022807D1E448012294F98D
:1027400006104830FFF74BFEE570FFF771FB0128DC
:1027500003D1A079401EA071E570FFF769FB032843
:1027600003D1A079401CA071E57094F906000028FF
:1027700001DAA77102E0072800DDA671E07810B346
:10278000E670D3A200210220FFF796FDD5A200211A
:102790000220FFF791FDCEA200210420FFF78CFD5F
:1027A000D3A200210420FFF787FDC848A179402368
:1027B00002224830FFF764FDC448E1794023042237
:1027C0005030FFF75DFD6078012852D1607930B15B
:1027D00066712571BEA200210620FFF76DFDFFF78F
:1027E00027FB022807D1B948012294F9071050307D
:1027F000FFF7F5FD2571FFF71BFB012803D1E079F9
:10280000401EE0712571FFF713FB032803D1E07927
:10281000401CE071257194F90700002801DAE77186
:1028200002E0072800DDE671207910B32671A8A226
:1028300000210220FFF740FDAAA200210220FFF79D
:102840003BFDA3A200210420FFF736FDA8A2002132
:102850000420FFF731FD9D48A17940230222483032
:10286000FFF70EFD9948E179402304225030FFF72D
:1028700007FD9648A14A483043F6095390F90010E5
:10288000514390F901205A4301EB821290F9021052
:1028900040F63543594302EB411290F9031040F2E0
:1028A0007123594302EB011190F9042002EB42031A
:1028B000C3EBC21201EBC20190F9052002EBC20387
:1028C00003EB021201EB820190F9062090F9070058
:1028D00002EB820201EB42010844FDF7D4FDC4E99A
:1028E00008017A48854A503043F6095390F90010A0
:1028F000514390F901205A4301EB821290F90210E2
:1029000040F63543594302EB411290F9031040F26F
:102910007123594302EB011190F9042002EB4203A9
:10292000C3EBC21201EBC20190F9052002EBC20316
:1029300003EB021201EB820190F9062090F90700E7
:1029400002EB820201EB42010844FDF79CFDC4E961
:102950000A016078DFF8A88102286AD1607928B17D
:1029600066715BA200210620FFF7A6FC6089FDF7D7
:102970009BFDC4E904012278FDF7DCFFC4E90601F0
:1029800023786289FDF742FFC4E90C01D4E908010C
:1029900000221346FDF7AEFD2CD0D4E90A01002237
:1029A0001346FDF7A7FD25D004F120000FC8FDF761
:1029B00083FCD4E90623FDF7B5FD01D851A20CE054
:1029C00004F120000FC8FDF7D6FBD4E90623FDF77C
:1029D00091FD01D850A200E054A200210620FFF78B
:1029E0006BFCD4E9060100224346FDF783FD03D2C8
:1029F000257015E052A2F0E7D4E906010022554BFC
:102A0000FDF778FD01D2022009E0D4E90601002299
:102A1000514BFDF76FFD01D2032000E00420207030
:102A2000D4E9060100224D4BFDF764FD2078FFF745
:102A3000EDFC6078032821D12078FFF779FB6089CD
:102A400070B1FDF731FDC4E904012278FDF772FF92
:102A5000C4E9060123786289FDF7D8FEC4E90C01B8
:102A6000FFF7E6F9022809D12078401CC0B2207097
:102A7000042800D925702078FFF7C8FC6078042866
:102A800072D1607928B1667111A200210620FFF78A
:102A900013FC28462570FFF7B9FCE068401CE06095
:102AA00004287CDBE660A0782D4B4FF0000260B17B
:102AB000D4E91001FDF75FFB00222A4BC4E91001A5
:102AC000FDF730FD5ED8A670FEE74EE00000002066
:102AD00020202020202020202020202020202020F6
:102AE00000000000474F414C3A2020202000000009
:102AF0004552524F523A2020200000008096980004
:102B000000407F40746F6F206C6974746C65212085
:102B10002020202000000000746F6F206269672170
:102B20002020202020202020000000002020202025
:102B3000202050415353202020202020000000005E
:102B40002D2D2D2D2D2D2D2D2D2D2D2D2D2D2D2DB5
:102B5000000000000094C14000DBFA400000F03F9C
:102B6000000022400060654056E0D4E910011F4695
:102B7000FDF7A2FB00223B46C4E91001FDF7BAFCB9
:102B800000D8A570D4E910010022244BFDF70CFCFD
:102B90000022234BFDF796FB0022434600E007E0AE
:102BA000FDF7E9FAFDF78DFC1E4980B2096848631C
:102BB000608968B3FDF778FCC4E904012278FDF769
:102BC000B9FEC4E9060123786289FDF71FFEC4E956
:102BD0000C0100BFD4E91001FDF773FC82B2D4E907
:102BE0000601CDE900010F480FA1703800F0BCF8D4
:102BF0000C487038FDF7B8FA02B00A49BDE8F04158
:102C000082B270394FF6FF7301F1B800FFF756B882
:102C10000020C4E90600DDE7BDE8FC8100806640D5
:102C200000409F403801002025642C256C660D0A69
:102C30000000000070B5044600680169E26821F4F4
:102C40004051114301612169A0680843616908434B
:102C50002168CA6841F20C639A430243CA60206843
:102C60004169A26921F44071114341611E49206804
:102C7000884202D1FEF764FC01E0FEF751FC00EB54
:102C8000C00101EB0012606864218000B2FBF0F328
:102C9000B3FBF1F36FF018067343B2FBF0F5B2FB30
:102CA000F0F605EB8305322303EB0515B5FBF1F5D3
:102CB000B6FBF1F605F0F00505EB0615B2FBF0F6F4
:102CC000B2FBF0F0B0FBF1F06FF01802504306EBEE
:102CD000800003EB0010B0FBF1F0216800F00F0062
:102CE0002844886070BD0000003801402DE9F041A3
:102CF000984617460E460446069D27E0681C25D0D8
:102D00002DB1FEF71FFAA0EB0800A8421ED92068DB
:102D10000C3050E8001F21F4D07140E80012002A66
:102D2000F5D12068143050E8001F21F0010140E87F
:102D30000012002AF5D1202084F8410084F84200D6
:102D4000002084F840000320BDE8F081206800687E
:102D500036EA000004D00020B842CFD00020F3E7CC
:102D60000120F9E7FEE700000FB4084B10B504A9F5
:102D700002AA039800F0EEF8044602A9002000F031
:102D800080FC204610BC5DF814FB00008336000870
:102D90000907090E002804DB00F1E02080F8001488
:102DA000704700F00F0000F1E02080F8141D70471C
:102DB00002E008C8121F08C1002AFAD17047704704
:102DC000002001E001C1121F002AFBD17047000062
:102DD0002DE9FF5F82B00021DDE90430020DDDF84E
:102DE00040B0034318D044F61050A2F2FF324243E1
:102DF0001514119801281FD0A5EB0B00401C5FEAA9
:102E0000000A4FF000064E4FDFF83891B0465046AA
:102E100015D5CAF1000413E0119801244AA3012832
:102E200001D16FEA0B010298119AC0E90031C0E9A3
:102E3000024206B0BDE8F09FCBF10000DFE7044698
:102E40000021404A491842EB0450CDE9001012E03D
:102E5000E00707D032463B4640464946FDF732FA86
:102E60008046894632463B4610461946FDF72AFA07
:102E700006460F466410002CEAD1DDE90401DDE9C5
:102E80000023BAF1000F06DAFDF71CFA42464B4662
:102E9000FDF718FA05E0FDF787FA42464B46FDF7C5
:102EA00083FA04460E460022284BFDF73BFB03D86D
:102EB0004FF0FF30014607E00022254B2046314607
:102EC000FDF759F9FDF70BFC102409E0002C0ADB93
:102ED0000A220023FDF754FB039B30321A55641E6F
:102EE00050EA0102F2D1641C039AC4F111031444A4
:102EF000119A012A03D0012208430DD10AE00843A8
:102F000004D000204FF0110B119072E7A3EB0B05DA
:102F10006D1E0DE05B4504DD4FF0000205F101057B
:102F200004E003DA4FF00002A5F10105002AECD01D
:102F300002981199C0E90231C0E9004579E7000023
:102F4000000014400000F03F300000000000F0439B
:102F50000000E03F2DE9FF4F95B09B4689460646AD
:102F600000250FE2252877D100242746F84A0121C1
:102F7000059400E0044316F8013F203B01FA03F0FA
:102F80001042F7D130782A2811D06FF02F03307813
:102F9000A0F13002092A16D8059A44F0020402EB87
:102FA000820203EB42021044761C0590EFE759F8C9
:102FB000042B0592002A03DA504244F40054059091
:102FC00044F00204761C30782E2816D116F8010F32
:102FD00044F004042A280DD06FF02F023078A0F1BD
:102FE0003003092B09D807EB870302EB4303C7180B
:102FF000761CF3E759F8047B761C30786C280FD0E8
:1030000006DC4C2817D068280DD06A2814D104E0BB
:10301000742810D07A280FD10DE044F400140AE08F
:1030200044F4801401E044F440147278824202D1E6
:1030300004F58014761C761C307866280BD013DCDF
:10304000582877D009DC002875D04528F6D04628C6
:10305000F4D047281AD19DE118E0632835D06428C0
:1030600079D0652812D195E1702873D008DC6728E3
:10307000F1D069286FD06E280DD06F2806D1B5E049
:1030800073282CD0752875D0782874D05A46179993
:1030900090476D1C75E1C4F30250022809D0032843
:1030A0000DD0D9F8001004280DD00D6009F10409E5
:1030B00067E1D9F80010EA17C1E90052F6E7D9F83C
:1030C00000100D80F2E70D70F0E719F8041B8DF881
:1030D000001000208DF80100EA46012003E059F8B5
:1030E00004AB4FF0FF3061074FF0000102D40DE058
:1030F00008F101018846B9420FDA8045F8DB1AF879
:1031000008100029F4D108E008F101018846814245
:10311000FADB1AF808100029F6D105985B46A0EBF7
:10312000080721463846179A00F094FA284400EB25
:10313000080507E04DE029E10DE01AF8010B5A46B9
:1031400017999047B8F10108F7D25B4621463846F7
:10315000179A13E142E00A220092C4F302524FF0A0
:10316000000A022A08D059F804CB032A4FEAEC716E
:103170000AD00DE029E02AE009F1070121F0070259
:10318000F2E802C1914609E00FFA8CFC4FEAEC71BB
:10319000042A03D14FFA8CFC4FEAEC71002907DABC
:1031A0000A460021DCF1000C61EB02012D2202E055
:1031B000220504D52B228DF80420012203E0E2072A
:1031C00001D02022F7E7904659E00A2102E01022C0
:1031D0000DE010214FF0000A00910BE010224FF09B
:1031E000000A44F004040827009203E008224FF08C
:1031F000000A0092C4F30252022A05D059F804CB07
:103200000021032A08D009E009F1070121F0070293
:10321000F2E802C1914605E01FFA8CFC042A01D1B4
:103220000CF0FF0C4FF00008220728D5702806D0BC
:10323000009B83F0100353EA0A0305D00EE04022FE
:103240008DF80420012208E05CEA010206D0302259
:103250008DF804208DF8050002229046009B83F033
:10326000080353EA0A030AD15CEA010201D16207AA
:1032700005D530228DF804204FF001087F1E582814
:1032800004D034A003900EA802900DE036A0F9E718
:1032900053466046009AFDF773F984460398825CB2
:1032A0000298401E029002705CEA0100F0D1029880
:1032B00006A9081A00F1200A600702D524F4803418
:1032C00000E00127574502DDA7EB0A0000E00020DF
:1032D00000EB0A01009005984144401A0590E00374
:1032E00006D45B462146179A059800F0B3F90544C9
:1032F000002706E001A85A46C05D179990476D1C4B
:103300007F1C4745F6DBE0030CD55B462146179A48
:10331000059800F09FF9054404E030205A461799BB
:1033200090476D1C0099481E00900029F5DC08E0CC
:10333000029802995A460078491C029117999047C1
:103340006D1CBAF10001AAF1010AF1DC65E100008F
:10335000092801003031323334353637383961626B
:10336000636465660000000030313233343536372F
:1033700038394142434445460000000000F058F906
:103380000544761C307800287FF4ECAD19B028464F
:10339000BDE8F08F620700D4062709F1070222F08A
:1033A000070CFCE80223E14603F000485FEA080C42
:1033B00002D00FF2702C0DE05FEA045C02D50FF230
:1033C000682C07E05FEAC47C02D00FF2602C01E0B9
:1033D000AFF2700C4FF0FF3823F00043CDF850C02F
:1033E00065280CD006DC452809D046281DD0472882
:1033F0003DD13DE0662818D067287ED138E0002115
:10340000112F01DB112000E0781CCDE9000106A995
:103410000EA8FFF7DDFCDDE90F010E9A03910021F4
:10342000009207F1010A04914DE04FF0004000972F
:10343000CDE9011006A90EA8FFF7CAFCDDE90F02CD
:1034400003920E9B11990022DDF80CA000930492C8
:1034500011B9791C00EB010AB7EB0A0004D4C0F1E2
:10346000FF3007F1010A0490AAEB0700019044E045
:10347000012F00DA01270021112F01DD112000E0CA
:103480003846CDE9000106A90EA8FFF7A1FCDDE949
:103490000F010E9A0391002104910092BA46210770
:1034A0000CD40399514500DA8A46BAF1010F05DDC3
:1034B000009AAAF10101515C302908D0B84202DA21
:1034C00010F1040F06DA0121CDE9011015E0AAF18F
:1034D0000101E9E7002805DC049901440491AAEB05
:1034E000000102E0411C514500DD8A460499401A62
:1034F000401C01904FF000400290200704D4019836
:10350000504501DBCDF8048000208DF84F00029873
:103510000DF14F07B0F1004F25D02B200E900298EF
:103520004FF0020800280CDA404202902D200E9045
:1035300007E00A210298FDF70DF83031029007F8F4
:10354000011DB8F10001A8F10108F2DC0298002881
:10355000EFD1791E0E980870307800F0200040F00E
:10356000450007F8020D12A8C01B00F107081498C7
:10357000007800B1012000EB0A01019801EBE07135
:1035800005984144401A401E0590E00306D45B466E
:103590002146179A059800F05DF8054414980078C4
:1035A00018B15A46179990476D1CE00324D55B4625
:1035B0002146179A059800F04DF805441CE0049840
:1035C000002807DBDDE90301884203DD0098405C49
:1035D000179901E0179930205A469047049805F151
:1035E0000105401C04900198401E019004D12E203A
:1035F0005A46179990476D1CBAF10001AAF1010AC9
:10360000DDDC05E017F8010B5A46179990476D1C51
:10361000B8F10001A8F10108F4DC5B462146179AD5
:103620000598ABE62D0000002B00000020000000F4
:103630002DE9F041044600251E461746880404D4AF
:1036400005E039462020B0476D1C641EF9D5284698
:10365000BDE8F0812DE9F041044600251E46904664
:10366000C80301D5302700E02027880404D505E0F1
:1036700041463846B0476D1C641EF9D52846BDE862
:10368000F0810A68531C0B601070704770B51748C2
:10369000FDF7ECFB0A211548FDF74AFB1348FDF73F
:1036A00089FAFCF701FF124C104A0B46657AA03AE2
:1036B00002EBC502C2E900010246D4E90E01FCF7A3
:1036C0005AFD0A226D1CB5FBF2F302FB1352C4E94A
:1036D0000E01627212B10020014670BD0022054B3E
:1036E000FCF762FE0022C4E90E2270BD0801002032
:1036F0000000002000002440FDF732FDFEF7D2FE5E
:10370000FEF7F8FBFEF7CEFBFEF744FC1B481A4918
:103710000C2201604FF4E131416000218160C16001
:10372000C0E904128161C161FEF75EFA08B172B6A8
:10373000FEE7124800214838FEF708FA0F487838AB
:10374000FDF74EF908B172B6FEE7FEF7C5FD0020A1
:10375000FEF776FC0A4D00240120FDF7E7FBFFF79A
:1037600095FFFCF7AEFE641CE4B26881322CF3D303
:10377000FEF7BCFFEFE700000038014080010020A9
:1037800000000020010202030405060708090A0BD5
:103790000C0D0E0F101001020203040506070809A4
:1037A0000A0B0C0D0E0F10100000000000000000AE
:1037B00001020304060708090000000001020304D7
:1037C00000000000000000000000000000000000F9
:1037D000000000F80000000000000033300000008E
:1037E00000100C06100C0600000000000000000095
:1037F00040C07840C0784000043F04043F04040007
:10380000007088FC08300000001820FF211E000016
:10381000F008F000E018000000211C031E211E002B
:1038200000F00888700000001E21232419272110B1
:103830000002020400000000000000000000000080
:10384000000000E0180402000000000718204000FB
:1038500000020418E00000000040201807000000EB
:10386000404080F0804040000202010F010202004F
:10387000000000F0000000000101011F0101010033
:10388000000000000000000080B070000000000098
:103890000000000000000000000101010101010121
:1038A00000000000000000000030300000000000B8
:1038B000000000008060180400601806010000008D
:1038C00000E010080810E000000F102020100F008A
:1038D000001010F8000000000020203F2020000011
:1038E0000070080808887000003028242221300069
:1038F00000300888884830000018202020110E0071
:103900000000C02010F8000000070424243F240019
:1039100000F80888880808000019212020110E00EE
:1039200000E0108888180000000F112020110E0000
:1039300000380808C83808000000003F00000000F8
:103940000070880808887000001C222121221C00B9
:1039500000E010080810E0000000312222110F00E2
:10396000000000C0C0000000000000303000000077
:1039700000000080000000000000806000000000E7
:103980000000804020100800000102040810200000
:10399000404040404040400004040404040404004B
:1039A00000081020408000000020100804020100E0
:1039B000007048080808F0000000003036010000E0
:1039C000C030C828E810E0000718272423140B0093
:1039D0000000C038E0000000203C2302022738200D
:1039E00008F8888888700000203F202020110E00F1
:1039F000C0300808080838000718202020100800E8
:103A000008F808080810E000203F202020100F00D0
:103A100008F88888E8081000203F2020232018009C
:103A200008F88888E8081000203F20000300000004
:103A3000C03008080838000007182020221E0200A5
:103A400008F808000008F808203F210101213F2064
:103A5000000808F8080800000020203F202000008F
:103A600000000808F8080800C08080807F0000007F
:103A700008F888C028180800203F200126382000B8
:103A800008F8080000000000203F2020202030001F
:103A900008F8F800F8F80800203F003F003F200039
:103AA00008F830C00008F808203F200007183F0041
:103AB000E01008080810E0000F10202020100F0070
:103AC00008F808080808F000203F21010101000063
:103AD000E01008080810E0000F18242438504F00A8
:103AE00008F8888888887000203F2000030C302068
:103AF00000708808080838000038202121221C00A6
:103B0000180808F8080818000000203F20000000EE
:103B100008F808000008F808001F202020201F00D7
:103B20000878880000C83808000007380E01000037
:103B3000F80800F80008F800033C0700073C030001
:103B4000081868808068180820302C03032C302067
:103B50000838C800C83808000000203F20000000D6
:103B600010080808C838080020382621202018002E
:103B7000000000FE020202000000007F4040400002
:103B8000000C30C000000000000000010638C0003A
:103B900000020202FE000000004040407F000000E2
:103BA0000000040202020400000000000000000007
:103BB0000000000000000000808080808080808005
:103BC00010160E00000000000000000000000000C1
:103BD00000008080808000000019242222223F20E3
:103BE00008F8008080000000003F112020110E0026
:103BF0000000008080800000000E112020201100B5
:103C0000000000808088F800000E112020103F2066
:103C10000000808080800000001F222222221300EA
:103C2000008080F0888888180020203F2020000035
:103C30000000808080808000006B949494936000EA
:103C400008F8008080800000203F210000203F20F5
:103C500000809898000000000020203F20200000F5
:103C6000000000809898000000C08080807F0000E5
:103C700008F8000080808000203F24022D302000C2
:103C8000000808F8000000000020203F202000006D
:103C90008080808080808000203F20003F20003F87
:103CA0008080008080800000203F210000203F2095
:103CB0000000808080800000001F202020201F0046
:103CC000808000808000000080FFA12020110E0075
:103CD0000000008080808000000E112020A0FF8066
:103CE000808080008080800020203F212000010013
:103CF0000000808080808000003324242424190068
:103D0000008080E0808000000000001F2020000074
:103D10008080000000808000001F202020103F20B5
:103D2000808080000080808000010E300806010045
:103D300080800080008080800F300C030C300F00EA
:103D400000808000808080000020312E0E31200015
:103D5000808080000080808080818E701806010045
:103D600000808080808080000021302C2221300063
:103D700000000000807C020200000000003F404084
:103D800000000000FF00000000000000FF00000035
:103D90000002027C800000000040403F0000000064
:103DA00000060101020204040000000000000000FF
:103DB000D03D00080000002068000000B02D000881
:103DC000383E000868000020D8050000C02D00081B
:103DD00001020101010007070000000000000000CF
:103DE00000000000000000000000000000000000D3
:103DF00000000000000000000000000000000000C3
:103E000000000000000000000000000000000000B2
:103E100000000000000000000000000000000000A2
:103E20000000000000000000010000001000000081
:083E3000000000000024F40072
:04000005080000ED02
:00000001FF
